:03000000020003F8
:0C000300787FE4F6D8FD75811802004AF1
:10008F007F647E0012016D7D057C007F01120100EF
:10009F007F647E0012016D7D027C007F02120100E1
:1000AF007F647E0012016DE4FDFC7F031201007F6F
:1000BF00647E0012016D7D017C007F041201007FC0
:1000CF00647E0012016D7D037C007F051201007FAD
:1000DF00647E0012016D7D017C007F061201007F9E
:1000EF00647E0012016D7D047C007F071201008089
:0100FF008F71
:10016D00EF1FAC0670011E4C600A7D0C7CA9DCFEF5
:04017D00DDFC80EC39
:01018100225B
:1001820011083F065B4F666D7D077F6F777C395E96
:0301920079710080
:10010000EF14B40800505490011575F003A4C58392
:1001100025F0C5837302012D020131020135020170
:100120003902013D02014502014D020155D2A48070
:100130000ED2A48012D2A48016D2A4801AC2A4D255
:10014000A3D2A28016C2A4D2A3C2A2800EC2A4C20D
:10015000A3D2A28006C2A4C2A3C2A274082DF8E64C
:0D016000F5807F147E0012016DE4F5802211
:10000F0002008FE493A3F8E493A34003F68001F278
:10001F0008DFF48029E493A3F85407240CC8C333F2
:10002F00C4540F4420C8834004F456800146F6DFC1
:10003F00E4800B0102040810204080900182E47ECE
:10004F00019360BCA3FF543F30E509541FFEE493B6
:10005F00A360010ECF54C025E060A840B8E493A37D
:10006F00FAE493A3F8E493A3C8C582C8CAC583CAA8
:10007F00F0A3C8C582C8CAC583CADFE9DEE780BE60
:010195000069
:00000001FF
